:020000040000FA
:100000000C9462000C948A000C948A000C948A0070
:100010000C948A000C948A000C948A000C948A0038
:100020000C948A000C948A000C948A000C948A0028
:100030000C948A000C948A000C948A000C948A0018
:100040000C9497040C948A000C9465040C943F045F
:100050000C948A000C948A000C948A000C948A00F8
:100060000C948A000C948A000000000024002700F1
:100070002A0000000000250028002B0000000000DE
:1000800023002600290004040404040404040202DA
:100090000202020203030303030301020408102007
:1000A0004080010204081020010204081020000012
:1000B0000008000201000003040700000000000027
:1000C0000000E10411241FBECFEFD8E0DEBFCDBF9A
:1000D00011E0A0E0B1E0E0E8F1E102C005900D928E
:1000E000AE39B107D9F722E0AEE9B1E001C01D9207
:1000F000A236B207E1F710E0C2E6D0E004C02197D3
:10010000FE010E94B808C136D107C9F70E942B052D
:100110000C94BE080C940000DC01ED91FC91019060
:10012000F081E02D0994AF92BF92CF92DF92EF92CF
:10013000FF920F931F93CF93DF936C017B018B0191
:10014000040F151FEB015E01AE18BF08C017D107E1
:1001500059F06991D601ED91FC910190F081E02D6B
:10016000C6010995892B79F7C501DF91CF911F91C0
:100170000F91FF90EF90DF90CF90BF90AF900895D8
:10018000FC01538D448D252F30E0842F90E0821B9D
:10019000930B541710F0CF96089501970895FC0122
:1001A000918D828D981761F0A28DAE0FBF2FB11D7A
:1001B0005D968C91928D9F5F9F73928F90E00895D2
:1001C0008FEF9FEF0895FC01918D828D981731F08C
:1001D000828DE80FF11D858D90E008958FEF9FEFE0
:1001E0000895FC01918D228D892F90E0805C9F4FB6
:1001F000821B91098F73992708958DEA91E00E94DF
:10020000F10021E0892B09F420E0822F089580E09D
:1002100090E0892B29F00E94FD0081110C940000D0
:100220000895FC01A48DA80FB92FB11DA35ABF4F8B
:100230002C91848D90E001968F739927848FA689E5
:10024000B7892C93A089B1898C91837080648C9339
:10025000938D848D981306C00288F389E02D8081E8
:100260008F7D80830895EF92FF920F931F93CF931A
:10027000DF93EC0181E0888F9B8D8C8D98131AC0E1
:10028000E889F989808185FF15C09FB7F894EE89C8
:10029000FF896083E889F989808183708064808325
:1002A0009FBF81E090E0DF91CF911F910F91FF9070
:1002B000EF900895F62E0B8D10E00F5F1F4F0F7318
:1002C0001127E02E8C8D8E110CC00FB607FCFACFD3
:1002D000E889F989808185FFF5CFCE010E9411015F
:1002E000F1CFEB8DEC0FFD2FF11DE35AFF4FF082A4
:1002F0009FB7F8940B8FEA89FB8980818062CFCF0A
:10030000CF93DF93EC01888D8823B9F0AA89BB894C
:10031000E889F9898C9185FD03C0808186FD0DC037
:100320000FB607FCF7CF8C9185FFF2CF808185FF58
:10033000EDCFCE010E941101E9CFDF91CF91089559
:10034000833081F028F4813099F08230A9F008954B
:100350008730A9F08830C9F08430B1F480918000F2
:100360008F7D03C0809180008F77809380000895F7
:1003700084B58F7784BD089584B58F7DFBCF809140
:10038000B0008F778093B00008958091B0008F7D8A
:10039000F9CFCF93DF93282F30E0F901E255FF4FDB
:1003A0008491F901E656FF4FD491F901EA57FF4FC6
:1003B000C491CC23A1F081110E94A001EC2FF0E0A8
:1003C000EE0FFF1FE458FF4FA591B491EC91ED2380
:1003D00081E090E009F480E0DF91CF91089580E022
:1003E00090E0FACF1F93CF93DF93282F30E0F901ED
:1003F000E255FF4F8491F901E656FF4FD491F90180
:10040000EA57FF4FC491CC23A9F0162F81110E9407
:10041000A001EC2FF0E0EE0FFF1FEE58FF4FA5916B
:10042000B4918FB7F894EC91111108C0D095DE23E8
:10043000DC938FBFDF91CF911F910895DE2BF8CF12
:10044000CF93DF9390E0FC01E656FF4F24918A574B
:100450009F4FFC0184918823D1F090E0880F991F71
:10046000FC01E859FF4FA591B491FC01EE58FF4FF4
:10047000C591D491623071F49FB7F8943C91822F6A
:10048000809583238C93E8812E2B28839FBFDF9157
:10049000CF9108958FB7F894EC912E2B2C938FBFAA
:1004A000F6CF3FB7F8948091A3019091A401A09159
:1004B000A501B091A60126B5A89B05C02F3F19F054
:1004C0000196A11DB11D3FBFBA2FA92F982F8827D4
:1004D000BC01CD01620F711D811D911D42E0660FAF
:1004E000771F881F991F4A95D1F708958F929F9281
:1004F000AF92BF92CF92DF92EF92FF924B015C01DD
:100500000E9451026B017C010E9451026C197D090D
:100510008E099F09683E734081059105A8F321E08B
:10052000821A9108A108B10888EEC80E83E0D81E8F
:10053000E11CF11C81149104A104B10429F7FF907E
:10054000EF90DF90CF90BF90AF909F908F900895E5
:10055000089590E080E00895CF93DF93EC0160E090
:100560008E810E94F20161E08E810E94F20160E0C2
:100570008E810E94F2018BE891E00197F1F7DF9103
:10058000CF910895CF92DF92EF92FF920F931F9336
:10059000CF93DF936C017C0187E0E80EF11CD0E083
:1005A000C0E0062F10E0B8010C2E02C075956795CB
:1005B0000A94E2F76170F70181917F010E94F201D4
:1005C0002196C430D10579F7C601DF91CF911F91F3
:1005D0000F91FF90EF90DF90CF900C94AC02CF92F0
:1005E000DF92EF92FF920F931F93CF93DF93EC0173
:1005F000F62E642F8C810E94F2018D818F3F19F0BD
:1006000060E00E94F2010F2D10E08F8584FF25C06D
:100610006E0187E0C80ED11CF12CE12CB8010E2C24
:1006200002C0759567950A94E2F76170F6018191B1
:100630006F010E94F201FFEFEF1AFF0A88E0E8164F
:10064000F10461F7CE01DF91CF911F910F91FF90DF
:10065000EF90DF90CF900C94AC02B80184E07595D8
:1006600067958A95E1F7CE010E94C2026F2DCE01F7
:10067000DF91CF911F910F91FF90EF90DF90CF907E
:100680000C94C20240E0682F8AE492E00C94EF02DE
:1006900081E00E9442038BE39FE10197F1F7089507
:1006A000CF93DF93823029F4909159029860909310
:1006B000590280935D0210925E0280E480935F0293
:1006C00080E18093600280E58093610261E0809127
:1006D0004E020E94200280914F028F3F19F061E08C
:1006E0000E94200261E0809150020E942002CAE430
:1006F000D2E09E012A5432408091590284FD0BC001
:1007000084E090E021962817390744F461E08E8157
:100710000E942002EECF88E090E0F4CF8BE39DE0D2
:100720000197F1F760E080914E020E94F20160E0D3
:10073000809150020E94F20180914F028F3F19F088
:1007400060E00E94F2018091590284FD34C063E0B0
:100750008AE492E00E94C202CBE4D6E4CE01019783
:10076000F1F763E08AE492E00E94C2022197F1F778
:1007700063E08AE492E00E94C20283E592E001977E
:10078000F1F762E08AE492E00E94C202809159028D
:1007900080620E94420384E080935A028CE00E94AF
:1007A00042030E94480382E080935B0286E0DF916F
:1007B000CF910C94420380620E9442038BE496E442
:1007C0000197F1F78091590280620E94420383E50C
:1007D00092E00197F1F78091590280620E944203F2
:1007E000D5CF90915D02691710F06FEF690FE62F7A
:1007F000F0E0E65BFD4F9489890F80680C9442031A
:1008000041E00E94EF0281E090E00895FB01019039
:100810000020E9F73197AF01461B570BDC01ED9142
:10082000FC910280F381E02D09940F931F93CF93E5
:10083000DF93CDB7DEB7A1970FB6F894DEBF0FBE3A
:10084000CDBF19A280E388A3BE01605E7F4F8DEA11
:1008500091E00E9406048C016BE271E08DEA91E068
:100860000E940604800F911FA1960FB6F894DEBF78
:100870000FBECDBFDF91CF911F910F9108951F92B1
:100880000F920FB60F9211242F933F934F935F93C4
:100890006F937F938F939F93AF93BF93EF93FF9348
:1008A0008DEA91E00E941101FF91EF91BF91AF910C
:1008B0009F918F917F916F915F914F913F912F9178
:1008C0000F900FBE0F901F9018951F920F920FB6AA
:1008D0000F9211242F938F939F93EF93FF93E091A7
:1008E000BD01F091BE018081E091C301F091C4018E
:1008F00082FD1BC090818091C6018F5F8F73209114
:10090000C701821741F0E091C601F0E0E355FE4FC8
:10091000958F8093C601FF91EF919F918F912F91B9
:100920000F900FBE0F901F9018958081F4CF1F92EB
:100930000F920FB60F9211242F933F938F939F9393
:10094000AF93BF9380919F019091A001A091A101CD
:10095000B091A20130919E0123E0230F2D3758F56D
:100960000196A11DB11D20939E0180939F0190933C
:10097000A001A093A101B093A2018091A301909145
:10098000A401A091A501B091A6010196A11DB11DE0
:100990008093A3019093A401A093A501B093A60115
:1009A000BF91AF919F918F913F912F910F900FBE6B
:1009B0000F901F90189526E8230F0296A11DB11DD8
:1009C000D2CFEDEAF1E01382128288EE93E0A0E04C
:1009D000B0E084839583A683B78381E191E091831E
:1009E000808385EC90E09587848784EC90E09787FE
:1009F000868780EC90E0918B808B81EC90E0938BEC
:100A0000828B82EC90E0958B848B86EC90E0978BC8
:100A1000868B118E128E138E148EEAE4F2E013820E
:100A2000128283E291E0918380838CE084838FEF54
:100A300085838BE0868385E0878384E0808783E0FD
:100A4000818782E08287138614861586168617862C
:100A500081E00C945003CF93DF93CDB7DEB7289796
:100A60000FB6F894DEBF0FBECDBF789484B5826018
:100A700084BD84B5816084BD85B5826085BD85B542
:100A8000816085BD80916E00816080936E001092C0
:100A9000810080918100826080938100809181003B
:100AA00081608093810080918000816080938000CC
:100AB0008091B10084608093B1008091B00081602A
:100AC0008093B00080917A00846080937A00809156
:100AD0007A00826080937A0080917A0081608093AE
:100AE0007A0080917A00806880937A001092C10029
:100AF00082E00E94500360E080E00E94F103E091F8
:100B0000BD01F091BE0182E08083E091B901F091D6
:100B1000BA011082E091BB01F091BC018FEC80839F
:100B20001092C501E091C101F091C20186E080837D
:100B3000E091BF01F091C001808180618083E091EC
:100B4000BF01F091C001808188608083E091BF0186
:100B5000F091C001808180688083E091BF01F091B5
:100B6000C00180818F7D808362E082E10E9420024B
:100B700062E08DE00E94200262E08AE00E94200292
:100B800062E089E00E94200262E088E00E94200288
:100B900062E087E00E94200262E086E00E9420027C
:100BA00062E08EE00E94200262E08FE00E9420025C
:100BB00062E080E10E94200262E081E10E94200266
:100BC00061E083E10E94200282E10E94C9019A83D0
:100BD00089838DE00E94C9015C018AE00E94C901FD
:100BE0006C0189E00E94C9017C0188E00E94C90172
:100BF0008C0187E00E94C90198878F8386E00E945C
:100C0000C9014C018EE00E94C9013C018FE00E94A5
:100C1000C9012C0180E10E94C9011C0181E10E94EF
:100C2000C9019C838B8380910C018823A1F0809162
:100C30000B01882381F060E081E00E94F1036EE205
:100C400071E08AE492E00E94060461E080E00E9484
:100C5000F10310920B018091AB019091AC019E8346
:100C60008D8361E08D810E94F103A114B10409F02C
:100C700080C080910A018823A1F080910C01882313
:100C800081F010920A018D819E8101969093AC01B2
:100C90008093AB0163E28AE492E00E948C000E94A0
:100CA0001504C114D10409F070C080910901882392
:100CB000B1F080910C01882391F01092090180918C
:100CC000AB019091AC0101969093AC018093AB0184
:100CD00063E28AE492E00E948C000E941504E11411
:100CE000F10409F05EC0809108018823B1F0809181
:100CF0000C01882391F0109208018091AB01909132
:100D0000AC0101969093AC018093AB0163E28AE45D
:100D100092E00E948C000E9415040115110509F053
:100D200076C180910701882309F451C080910C019C
:100D3000882309F44CC0109207018091AB01909177
:100D4000AC0101969093AC018093AB0163E28AE41D
:100D500092E00E948C000E9415048091AB0190915A
:100D6000AC018130910549F59093AA018093A901C6
:100D70002EC0AA94AB2809F094CF80910A0181116A
:100D800090CF81E080930A018CCFCA94CD2809F0DE
:100D9000A6CF809109018111A2CF81E08093090142
:100DA0009ECFEA94EF2809F0B8CF80910801811115
:100DB000B4CF81E080930801B0CF8330910539F43E
:100DC0002091A9013091AA012230310569F28F8169
:100DD0009885892B09F027C1809106018823B1F0FD
:100DE00080910C01882391F0109206018091AB0153
:100DF0009091AC0101969093AC018093AB0163E2BA
:100E00008AE492E00E948C000E94150481149104EF
:100E100009F016C1809105018823B1F080910C0181
:100E2000882391F0109205018091AB019091AC0163
:100E300001969093AC018093AB0163E28AE492E067
:100E40000E948C000E9415046114710409F004C111
:100E500080910401882341F180910C01882321F1C4
:100E6000109204018091AB019091AC010196909396
:100E7000AC018093AB0163E28AE492E00E948C00B3
:100E80000E9415048091AB019091AC0182309105D4
:100E900059F42091A9013091AA012130310521F4A2
:100EA0009093AA018093A9014114510409F0E0C074
:100EB00080910301882341F180910C01882321F165
:100EC000109203018091AB019091AC010196909337
:100ED000AC018093AB0163E28AE492E00E948C0053
:100EE0000E9415048091AB019091AC018430910572
:100EF00059F42091A9013091AA012330310521F440
:100F00009093AA018093A9012114310409F0BCC077
:100F1000809102018823B1F080910C01882391F027
:100F2000109202018091AB019091AC0101969093D7
:100F3000AC018093AB0163E28AE492E00E948C00F2
:100F40000E9415048B819C81892B09F0A9C0809196
:100F500001018823B1F080910C01882391F0109257
:100F600001018091AB019091AC0101969093AC018D
:100F70008093AB0163E28AE492E00E948C000E94BD
:100F8000150489819A81892B09F0E5C080910001BF
:100F9000882381F180910C01882361F11092000176
:100FA0008091A9019091AA01049709F08BC08091CA
:100FB000AB019091AC01049709F084C00E944803F2
:100FC00010920C0161E083E10E94F2016EE371E096
:100FD0008AE492E00E9406046DE471E08DEA91E0FB
:100FE0000E9406046BE271E08DEA91E00E94060423
:100FF0000E94150480E090E0892B09F4E5CD0E9461
:10100000FD00882309F4E0CD0E940000DDCD013011
:10101000110509F0DCCE809107018111D8CE81E065
:1010200080930701D4CE8F819885019709F0EECE89
:10103000809106018111EACE81E080930601E6CE1F
:101040008A94892809F000CF809105018111FCCE96
:1010500081E080930501F8CE6A94672809F024CFD7
:1010600080910401811120CF81E0809304011CCF85
:101070004A94452809F048CF80910301811144CF5B
:1010800081E08093030140CF2A94232809F05ACFAE
:1010900080910201811156CF81E08093020152CFED
:1010A0008B819C81019709F06CCF809101018111A6
:1010B00068CF80910C01882309F463CF81E080938D
:1010C00001015FCF8091A7019091A80104972CF5B1
:1010D0000E9448036FE671E08AE492E00E940604F1
:1010E0006CED75E080E090E00E9476020E9448037B
:1010F00081E080930C0180930B011092AC0110925F
:10110000AB018091A7019091A80101969093A8014D
:101110008093A7016AE771E061CF0E9448036CE801
:1011200071E08AE492E00E94060468EB7BE080E0D4
:1011300090E00E9476020E94480381E080930C01B7
:1011400080930B011092AC011092AB011092A80198
:101150001092A7014DCF89819A81019709F04ACF5A
:1011600080910001811146CF81E08093000142CF40
:10117000EE0FFF1F0590F491E02D0994F894FFCF36
:101180000101010101010101010101010100000052
:101190000033019300C0008001F100CF00E30000A4
:1011A00000000000049300A902A8020D0A00577273
:1011B0006974652050617373776F72643A006F7061
:1011C000616E20796F757220646F6F720054686968
:1011D0007320696120436F6E67726174696F6C611F
:1011E00074696F6E21212121212121212121007487
:1011F0007279206167696E212100546869732069E2
:1012000061206E6F74206578697374007472792040
:0E1210006167696E2061667465723A33000092
:107E0000112484B714BE81FFF0D085E080938100F7
:107E100082E08093C00088E18093C10086E0809377
:107E2000C20080E18093C4008EE0C9D0259A86E02C
:107E300020E33CEF91E0309385002093840096BBD3
:107E4000B09BFECF1D9AA8958150A9F7CC24DD24C4
:107E500088248394B5E0AB2EA1E19A2EF3E0BF2EE7
:107E6000A2D0813461F49FD0082FAFD0023811F036
:107E7000013811F484E001C083E08DD089C08234E0
:107E800011F484E103C0853419F485E0A6D080C0E4
:107E9000853579F488D0E82EFF2485D0082F10E0AE
:107EA000102F00270E291F29000F111F8ED06801E7
:107EB0006FC0863521F484E090D080E0DECF843638
:107EC00009F040C070D06FD0082F6DD080E0C81688
:107ED00080E7D80618F4F601B7BEE895C0E0D1E017
:107EE00062D089930C17E1F7F0E0CF16F0E7DF06D8
:107EF00018F0F601B7BEE89568D007B600FCFDCFD4
:107F0000A601A0E0B1E02C9130E011968C91119780
:107F100090E0982F8827822B932B1296FA010C0160
:107F200087BEE89511244E5F5F4FF1E0A038BF0790
:107F300051F7F601A7BEE89507B600FCFDCF97BE46
:107F4000E89526C08437B1F42ED02DD0F82E2BD052
:107F50003CD0F601EF2C8F010F5F1F4F84911BD097
:107F6000EA94F801C1F70894C11CD11CFA94CF0C13
:107F7000D11C0EC0853739F428D08EE10CD085E9AC
:107F80000AD08FE07ACF813511F488E018D01DD067
:107F900080E101D065CF982F8091C00085FFFCCF94
:107FA0009093C60008958091C00087FFFCCF809118
:107FB000C00084FD01C0A8958091C6000895E0E648
:107FC000F0E098E1908380830895EDDF803219F02E
:107FD00088E0F5DFFFCF84E1DECF1F93182FE3DFCA
:107FE0001150E9F7F2DF1F91089580E0E8DFEE27F6
:047FF000FF270994CA
:027FFE00040479
:00000001FF
